:100000004DC267C266C265C264C263C2B6C261C283
:1000100060C25FC25EC25DC25CC25BC25AC259C2EC
:1000200058C257C256C20000000000808000003055
:100030003000000000000000000000000000002F61
:10004000000000000700070000147F147F14002444
:100050002A7F2A1200626408132300364955225071
:1000600000000503000000001C22410000004122A6
:100070001C000014083E08140008083E0808000090
:1000800000A0600000080808080800006060000088
:10009000002010080402003E5149453E0000427F06
:1000A0004000004261514946002141454B31001852
:1000B00014127F10002745454539003C4A49493014
:1000C00000017109050300364949493600064949CE
:1000D000291E0000363600000000563600000008D9
:1000E00014224100001414141414000041221408B6
:1000F00000020151090600324959513E007C12119B
:10010000127C007F49494936003E41414122007F2F
:100110004141221C007F49494941007F09090901E9
:10012000003E4149497A007F0808087F0000417F6E
:100130004100002040413F01007F08142241007F20
:1001400040404040007F020C027F007F0408107F87
:10015000003E4141413E007F09090906003E4151F0
:10016000215E007F091929460046494949310001AD
:10017000017F0101003F4040403F001F2040201F01
:10018000003F4038403F00631408146300070870C4
:10019000080700615149454300007F414100005577
:1001A0002A552A55000041417F0000040201020443
:1001B0000040404040400000010204000020545430
:1001C0005478007F48444438003844444420003880
:1001D0004444487F00385454541800087E090102F2
:1001E0000018A4A4A47C007F080404780000447DC7
:1001F0004000004080847D00007F10284400000003
:10020000417F4000007C04180478007C08040478D6
:1002100000384444443800FC2424241800182424C2
:1002200018FC007C080404080048545454200004BE
:100230003F444020003C4040207C001C2040201CCB
:10024000003C4030403C004428102844001CA0A042
:10025000A07C004464544C44000008774100000036
:10026000006300000000417708000008040808044B
:10027000003D4040207D003D4040403D0021545421
:100280005479007D1211127D003944444439003DF7
:100290004242423D000205020000007E01495573C2
:1002A000AE2000B0C8001040813FA1A6A83FA4D353
:1002B00000D5F0D922DA12DB208D140000000000F6
:1002C000000000000000000000C0E03010101030FE
:1002D000E0C000001F3F60C0808080C0F17F1F0031
:1002E000000000000000000000000000000000000E
:1002F0000000000000000080C0E0F8FF7F0002075F
:100300000301E0FF7F000000000000010100000089
:1003100000000000000000000000000000000000DD
:1003200030381C0C04040CFCF8E0000070F0F0F015
:10033000F0E06070789F8F81800000000000000076
:1003400000000000000000000000000000000000AD
:1003500000000000040E028282C2E67C3800000029
:10036000307060C1818183C77E3C000000000000C6
:10037000000000000000000000000000000000007D
:1003800000000000F8FF0F0100000080E0F02000F6
:100390000103060404060603FFFF0000000000003E
:1003A00000000000000000000000000000808080CD
:1003B0008080808080800000000000207C7F67605B
:1003C00060E0C0C080000000003878C0C08080803D
:1003D00080C0E17F3F00000000000000000000003E
:1003E000000000000000000000000000000000000D
:1003F000000000000080E0F89C8683818181030377
:1004000000001F7F73E1C0C0C0C1F37F3E00000049
:1004100000000000000000000000000000000000DC
:100420000000000000000000040404040404FCFCBC
:100430000000000000000101C1FFFF0703030000EE
:1004400000000000000000000000000000000000AC
:1004500000000000000000387CC682C2E67E1C005E
:100460000000003C7FE3C18386FE7C0000000000AA
:10047000000000000000000000000000000000007C
:10048000007CFEC38181E3FE3C000000000000FF11
:10049000FF000000000000000000000011241FBE4B
:1004A000CFE5D4E0DEBFCDBF10E0A0E6B0E0E0EFE6
:1004B000FBE002C005900D92A63AB107D9F710E013
:1004C000A6EAB0E001C01D92AF3AB107E1F702D051
:1004D0008DC396CDDF92EF92FF920F931F938FEA19
:1004E00019D3AED180E067E08AD180E690E01FD1D9
:1004F000A3D184EC61D180E090E05BD38093840051
:1005000081E090E05ED3909383008093820083E04B
:1005100090E057D390938600809385002DE02EBD08
:100520009BBD8ABD80E189BF78948AE090E041D389
:10053000E82E8093A70089E090E03BD3082F8093BA
:10054000AB0088E090E035D3D82E8093AD0087E0F3
:1005500090E02FD3F82E8093AA0086E090E029D374
:10056000182F8093AE0085E090E023D38093AC00F9
:10057000612F4F2D2D2D4BD2FFCF1F920F920FB613
:100580000F921124EF920F932F933F934F935F930A
:100590006F937F938F939F93AF93BF93EF93FF934B
:1005A0008091A8009091A90001969093A900809352
:1005B000A8000497F9F480918200909183009BBD7C
:1005C0008ABD8091840088608EBD1DBC1CBC80915A
:1005D000A600813079F48091AC006091AE0040912A
:1005E000AA002091AD000091AB00E090A7000FD2CF
:1005F0001092A6008091A8009091A900059709F09B
:1006000057C080918500909186009BBD8ABD8DE08A
:100610008EBD1DBC1CBC8091A7008F5F8093A7007E
:100620001092A9001092A8008A3039F48091AB0092
:100630008F5F8093AB001092A7008091AB00863053
:1006400039F48091AD008F5F8093AD001092AB00C4
:100650008091AD008A3039F48091AA008F5F809339
:10066000AA001092AD008091AA00863039F48091E2
:10067000AE008F5F8093AE001092AA008091AE0012
:100680008A3039F48091AC008F5F8093AC00109277
:10069000AE008091AC00823041F48091AE00843095
:1006A00021F41092AC001092AE0081E08093A6007D
:1006B000FF91EF91BF91AF919F918F917F916F913A
:1006C0005F914F913F912F910F91EF900F900FBE3F
:1006D0000F901F9018951F93CF93DF93182F1052F0
:1006E0001036A0F44FD280E45DD21F3571F086E061
:1006F000189FE0011124CA5CDF4F10E0FE018491D5
:1007000051D21F5F21961630C9F749D2DF91CF91A0
:100710001F910895CF93DF93EC0101C0DCDFFE0150
:10072000219684918823D1F7DF91CF910895CF93BB
:10073000DF93EC0102C02196CEDF88818823D9F7B0
:10074000DF91CF910895EF92FF921F93CF93DF93A4
:100750007C01EB0117D280E425D205C0EE0DFF1D10
:10076000808120D21F5FE12FF0E0EC17FD07B0F38E
:1007700016D2DF91CF911F91FF90EF900895FF92D5
:100780000F931F93CF93DF93182F092FF62EFAD1D3
:1007900080E008D2212F302FC901EC0110E003C006
:1007A000899100D21F5F1F15D8F3F9D1DF91CF9146
:1007B0001F910F91FF900895DF93CF9300D0CDB795
:1007C000DEB791E899838A83CE01019662E0D7DF94
:1007D0000F900F90CF91DF9108951F93DF93CF93E8
:1007E0000F92CDB7DEB7CED187EA8983CE010196CD
:1007F00061E0C5DF0F90CF91DF911F910895DF93E6
:10080000CF9300D000D0CDB7DEB7982F813868F4F1
:10081000683058F46055698381E28A839B838FE74F
:100820008C83CE01019664E0AADF0F900F900F90A9
:100830000F90CF91DF91089580E060E0E0DF0895B0
:10084000CF93DF93F9DFC0E0D0E081E090E061E09A
:1008500070E079DF219684E0C030D807B1F7ECDF93
:10086000DF91CF910895EF92FF920F931F93E82E9F
:10087000F62EF694F694F69400E00EC00F5F8E2DDF
:10088000602FBDDF7FD180E48DD110E080E08AD180
:100890001F5F1231D9F783D10F1580F31F910F918C
:1008A000FF90EF9008956F927F928F929F92AF92F8
:1008B000BF92CF92DF92EF92FF920F931F93CF934D
:1008C000DF93662E722EB02EC42EDD2430E02C195C
:1008D0003D0935952795A22EB694B694B69430E08E
:1008E0007C01E21AF30A00E049018C0C9D1C1DC03A
:1008F0000F5F862D602F83DF45D180E453D1E70160
:1009000010E00EC01A1540F0812F90E0881599056F
:100910001CF4FE01849101C080E044D11F5F219648
:10092000171580F33CD1EC0CFD1C0B1508F3DF917F
:10093000CF911F910F91FF90EF90DF90CF90BF90DC
:10094000AF909F908F907F906F900895AF92BF92DD
:10095000CF92DF92EF92FF920F931F93E82E162F04
:10096000B42EA22E86E290E060E344E026E100E2AD
:100970009ADFAE2DB0E022E9C22E20E0D22EFD019A
:10098000EE0FFF1FEC0DFD1D87E8E82E80E0F82E2E
:10099000AE0DBF1D8081918160E04C9126E183DF27
:1009A000A12FB0E0FD01EE0FFF1FEC0DFD1DAE0D00
:1009B000BF1D8081918168E14C9126E174DFAB2DF0
:1009C000B0E0FD01EE0FFF1FEC0DFD1DAE0DBF1DD4
:1009D0008081918168E44C9126E165DFBB24C501EB
:1009E000880F991FC80ED91EEA0CFB1CF6018081E6
:1009F000918160E6F701408126E155DF1F910F915B
:100A0000FF90EF90DF90CF90BF90AF900895BF928E
:100A1000CF92DF92EF92FF920F931F93182FD62E53
:100A2000F42EC22EB02E86E290E068E444E026E187
:100A300000E239DF86E290E060E244E022E133DF69
:100A4000FF2021F480E060E20EDF10C0A12FB0E0B3
:100A5000FD01EE0FFF1FEE56FF4FA957BF4F8081DC
:100A6000918160E04C9126E100E21DDFAD2DB0E008
:100A7000FD01EE0FFF1FEE56FF4FA957BF4F8081BC
:100A8000918162E14C9126E100E20DDFAF2DB0E0F3
:100A9000FD01EE0FFF1FEE56FF4FA957BF4F80819C
:100AA00091816AE24C9126E1FEDEAC2DB0E0FD01C1
:100AB000EE0FFF1FEE56FF4FA957BF4F8081918168
:100AC0006CE34C9126E1EFDEAB2DB0E0FD01EE0FC3
:100AD000FF1FEE56FF4FA957BF4F8081918165E5FB
:100AE0004C9126E1E0DEAE2DB0E0FD01EE0FFF1FE0
:100AF000EE56FF4FA957BF4F8081918167E64C9119
:100B000026E1D1DE1F910F91FF90EF90DF90CF9003
:100B1000BF9008951F93DF93CF93CDB7DEB76C9747
:100B20000FB6F894DEBF0FBECDBF182F1FD020E048
:100B300030E0CE010196F901E056FD4FE491DC0171
:100B4000A20FB31FEC932F5F3F4F2B31310599F765
:100B50001C8F6CE114DE74DE6C960FB6F894DEBF69
:100B60000FBECDBFCF91DF911F91089585B38063F4
:100B700085BB84B3806384BB11B882E080B984E014
:100B800086BF089584EA86BF06B607FEFDCF88E7D4
:100B900083B984E886BF06B607FEFDCF089584E9D1
:100BA00086BF089583B984E886BF06B607FEFDCFE9
:100BB0000895E199FECF9FBB8EBBE09A99278DB334
:100BC0000895A8E1B0E042E050E002C0DC01CB01B2
:100BD000FC01E199FECF06C0FFBBEEBBE09A319667
:100BE0000DB20D9241505040B8F70895F894FFCFE0
:100BF0004F4C454420436C6F636B20202020202005
:100C000020202020202020202020202020202020E4
:100C10002000102701E8030C090E0C0C100D0C0B22
:100C20000904BB02EB020F0347037703A703E703A3
:060C30001B044B047704D5
:00000001FF
