:10000000D3C2EDC2ECC2EBC2EAC2E9C223C3E7C26B
:10001000E6C2E5C2E4C2E3C2E2C2E1C2E0C2DFC2BC
:10002000DEC2DDC2DCC200000000000000000018DB
:100030001818000C0C0C000000000000000000006C
:100040000000002F000000000700070000147F14CC
:100050007F1400242A7F2A120062640813230036CA
:100060004955225000000503000000001C224100F9
:10007000000041221C000014083E08140008083E3D
:100080000808000000A06000000808080808000038
:1000900060600000002010080402003E5149453E07
:1000A0000000427F40000042615149460021414525
:1000B0004B31001814127F10002745454539003C8C
:1000C0004A4949300001710905030036494949365A
:1000D00000064949291E0000363600000000563649
:1000E000000000081422410000141414141400002D
:1000F0004122140800020151090600324959513EBB
:10010000007C1211127C007F49494936003E414172
:100110004122007F4141221C007F49494941007F23
:1001200009090901003E4149497A007F0808087F12
:100130000000417F4100002040413F01007F081442
:100140002241007F40404040007F020C027F007F40
:100150000408107F003E4141413E007F0909090625
:10016000003E4151215E007F091929460046494958
:1001700049310001017F0101003F4040403F001F25
:100180002040201F003F4038403F006314081463A4
:1001900000070870080700615149454300007F418E
:1001A000410000552A552A55000041417F000004B6
:1001B00002010204004040404040000001020400EF
:1001C000002054545478007F484444380038444454
:1001D000442000384444487F0038545454180008E0
:1001E0007E0901020018A4A4A47C007F08040478FE
:1001F0000000447D4000004080847D00007F102886
:1002000044000000417F4000007C04180478007C1A
:100210000804047800384444443800FC242424189A
:100220000018242418FC007C0804040800485454D6
:10023000542000043F444020003C4040207C001CEF
:100240002040201C003C4030403C00442810284402
:10025000001CA0A0A07C004464544C44000008771B
:100260004100000000630000000041770800000822
:1002700004080804003D4040207D003D4040403DD2
:10028000002154545479007D1211127D00394444E8
:100290004439003D4242423D000205020000007E1A
:1002A00001495573AE2000B0C8001040813FA1A69F
:1002B000A83FA4D300D5F0D922DA12DB208D140098
:1002C000000000000000000000000000000000002E
:1002D0000000000000000000000000000000E0F846
:1002E000FC0E0703030303071EFCF8E00001070FE1
:1002F0001C3830303030383C1F0F03000000000045
:1003000000000000000000000000000000000000ED
:100310000000000000000000000000000080F0FC71
:10032000FC00000070783C1E07E3FFFF03000000A4
:1003300000000000707F7F0300000000000000004C
:1003400000000000000000000000000000000000AD
:100350000000000000000000000000C0E0E070703D
:10036000303030F0E0C00000000000000303000067
:100370000000000080FFFF1F00000E1E1E1E1E1C3E
:100380001C18181C1E3733303030000000000000ED
:10039000000000000000000000000000000000005D
:1003A0000000000000000000000000207078181815
:1003B00018183870F0E00000000000000000181865
:1003C0001C1C3777E3E0800000060E0E1C38383026
:1003D0003030381F1F070000000000000000000040
:1003E000000000000000000000000000000000000D
:1003F000000000000000C0FCFE1E00000000000025
:1004000000808000000F7FFFE0C0C0C0E07078FE79
:10041000FF9F0000000000000000000000001F3FE0
:100420003F0000000000000000000000000000008D
:1004300000000000000000000000000000000000BC
:100440000000000000000000000000C0F8FE1E06D2
:100450000606060606060E0400000000000002075D
:10046000070706060E0E1C3CF8F0C0000000000056
:100470001F3F7070606060606070703C3F1F0700DD
:10048000000000000000000000000000000000006C
:10049000000000000000000000000000000000005C
:1004A000000000000000000080E0F078381C0C0C18
:1004B0000C0C1C180000F0FEFF3F391818183838D3
:1004C00078F0E0C00000030F1F38303020203030BB
:1004D000381F0F07000000000000000000000000AF
:1004E000000000000000000000000000000000000C
:1004F00000000000000038303030303030F0F000C4
:100500000000000000003030303030FCFF7F7070A1
:100510006020000000000000003E3F0F00000000CF
:1005200000000000000000000000000000000000CB
:100530000000000000000000000000000000C0F00B
:10054000F038181818B8F8F00000000103E7FC3C78
:100550001C3E77E3C180000000030F1F1C383030C1
:10056000303F1F0F000000000000000000000000EE
:1005700000000000000000000000000000E0F8F8AB
:100580001C0C0C1CBCF8F000070F1F1C1818F8FFFF
:10059000FF01000000000000003F3F3F000000009E
:1005A000000000000000000011241FBECFE5D4E0D1
:1005B000DEBFCDBF10E0A0E6B0E0E2EBFCE002C0A1
:1005C00005900D92A63AB107D9F710E0A6EAB0E07F
:1005D00001C01D92AF3AB107E1F702D068C310CD58
:1005E0008FEAF9D292D180E067E06ED180E690E0A8
:1005F00003D187D184EC45D180E090E03BD3809358
:10060000840081E090E03ED3909383008093820049
:1006100083E090E037D390938600809385002DE0AF
:100620002EBD9BBD8ABD80E189BF78941092A70042
:1006300085E08093AB008093AA0089E08093AD00B1
:100640001092AC001092AE0085E069E045E020E039
:10065000E2D1FFCF1F920F920FB60F9211242F936A
:100660003F934F935F936F937F938F939F93AF933A
:10067000BF93EF93FF938091A8009091A9000196FA
:100680009093A9008093A8000497D9F480918200E8
:10069000909183009BBD8ABD8091840088608EBD4F
:1006A0001DBC1CBC8091A600813059F48091AA0029
:1006B0006091AD004091AB002091A700ACD11092A9
:1006C000A6008091A8009091A900059709F057C055
:1006D00080918500909186009BBD8ABD8DE08EBD86
:1006E0001DBC1CBC8091A7008F5F8093A700109257
:1006F000A9001092A8008A3039F48091AB008F5F76
:100700008093AB001092A7008091AB00863039F443
:100710008091AD008F5F8093AD001092AB0080910F
:10072000AD008A3039F48091AA008F5F8093AA00CF
:100730001092AD008091AA00863039F48091AE000D
:100740008F5F8093AE001092AA008091AE008A3035
:1007500039F48091AC008F5F8093AC001092AE00B2
:100760008091AC00823041F48091AE00843021F45D
:100770001092AC001092AE0081E08093A600FF9131
:10078000EF91BF91AF919F918F917F916F915F9109
:100790004F913F912F910F900FBE0F901F90189582
:1007A0001F93CF93DF93182F10521036A0F44BD223
:1007B00080E459D21F3571F086E0189FE0011124C2
:1007C000C65CDF4F10E0FE0184914DD21F5F219681
:1007D0001630C9F745D2DF91CF911F910895CF937D
:1007E000DF93EC0101C0DCDFFE01219684918823B8
:1007F000D1F7DF91CF910895CF93DF93EC0102C041
:100800002196CEDF88818823D9F7DF91CF91089593
:10081000EF92FF921F93CF93DF937C01EB0113D2F2
:1008200080E421D205C0EE0DFF1D80811CD21F5F28
:10083000E12FF0E0EC17FD07B0F312D2DF91CF917A
:100840001F91FF90EF900895FF920F931F93CF9306
:10085000DF93182F092FF62EF6D180E004D2212F36
:10086000302FC901EC0110E003C08991FCD11F5F5A
:100870001F15D8F3F5D1DF91CF911F910F91FF9004
:100880000895DF93CF9300D0CDB7DEB791E8998379
:100890008A83CE01019662E0D7DF0F900F90CF914F
:1008A000DF9108951F93DF93CF930F92CDB7DEB7FB
:1008B000CAD187EA8983CE01019661E0C5DF0F9036
:1008C000CF91DF911F910895DF93CF9300D000D097
:1008D000CDB7DEB7982F813868F4683058F460558A
:1008E000698381E28A839B838FE78C83CE010196A3
:1008F00064E0AADF0F900F900F900F90CF91DF91DF
:10090000089580E060E0E0DF0895CF93DF93F9DFA2
:10091000C0E0D0E081E090E061E070E079DF219616
:1009200084E0C030D807B1F7ECDFDF91CF910895B4
:10093000EF92FF920F931F93E82EF62EF694F69403
:10094000F69400E00EC00F5F8E2D602FBDDF7BD1CF
:1009500080E489D110E080E086D11F5F1231D9F7A1
:100960007FD10F1580F31F910F91FF90EF900895A5
:100970006F927F928F929F92AF92BF92CF92DF92AF
:10098000EF92FF920F931F93CF93DF93662E722EF9
:10099000B02EC42EDD2430E02C193D093595279565
:1009A000A22EB694B694B69430E07C01E21AF30A13
:1009B00000E049018C0C9D1C1DC00F5F862D602F2F
:1009C00083DF41D180E44FD1E70110E00EC01A155A
:1009D00040F0812F90E0881599051CF4FE01849168
:1009E00001C080E040D11F5F2196171580F338D1F8
:1009F000EC0CFD1C0B1508F3DF91CF911F910F91AB
:100A0000FF90EF90DF90CF90BF90AF909F908F902E
:100A10007F906F900895AF92BF92CF92DF92EF9246
:100A2000FF920F931F93E82E162FB42EA22E86E26C
:100A300090E060E344E02EE108E29ADFAE2DB0E002
:100A400022E9C22E20E0D22EFD01EE0FFF1FEC0D99
:100A5000FD1D87E8E82E80E0F82EAE0DBF1D8081D9
:100A6000918160E04C912EE183DFA12FB0E0FD0188
:100A7000EE0FFF1FEC0DFD1DAE0DBF1D808191819E
:100A800068E14C912EE174DFAB2DB0E0FD01EE0F7B
:100A9000FF1FEC0DFD1DAE0DBF1D8081918168E42F
:100AA0004C912EE165DFBB24C501880F991FC80E4C
:100AB000D91EEA0CFB1CF6018081918160E6F701EA
:100AC00040812EE155DF1F910F91FF90EF90DF9055
:100AD000CF90BF90AF900895CF92DF92EF92FF92A8
:100AE0000F931F93162FF42ED22EC02E442321F4E1
:100AF00080E068E21DDF10C0A82FB0E0FD01EE0F1E
:100B0000FF1FEE56FF4FA957BF4F8081918160E0D4
:100B10004C912EE108E22CDFA12FB0E0FD01EE0F99
:100B2000FF1FEE56FF4FA957BF4F8081918162E1B1
:100B30004C912EE108E21CDF86E290E06AE244E09C
:100B40002EE116DFAF2DB0E0FD01EE0FFF1FEE56D8
:100B5000FF4FA957BF4F808191816AE24C912EE1EE
:100B600007DFAD2DB0E0FD01EE0FFF1FEE56FF4F8A
:100B7000A957BF4F808191816CE34C912EE1F8DE43
:100B800086E290E06EE444E02EE1F2DEAC2DB0E0CF
:100B9000FD01EE0FFF1FEE56FF4FA957BF4F80819B
:100BA000918165E54C912EE1E3DEAE2DB0E0FD01D3
:100BB000EE0FFF1FEE56FF4FA957BF4F8081918167
:100BC00067E64C912EE1D4DE1F910F91FF90EF90DC
:100BD000DF90CF9008951F93DF93CF93CDB7DEB70B
:100BE0006C970FB6F894DEBF0FBECDBF182F1FD085
:100BF00020E030E0CE010196F901EC55FD4FE49183
:100C0000DC01A20FB31FEC932F5F3F4F2B31310557
:100C100099F71C8F6CE118DE78DE6C960FB6F894AD
:100C2000DEBF0FBECDBFCF91DF911F91089585B379
:100C3000806385BB84B3806384BB11B882E080B9D4
:100C400084E086BF089584EA86BF06B607FEFDCF1E
:100C500088E783B984E886BF06B607FEFDCF08950E
:100C600084E986BF089583B984E886BF06B607FE87
:100C7000FDCF0895E199FECF9FBB8EBBE09A9927E7
:100C80008DB30895A8E1B0E042E050E002C0DC017D
:100C9000CB01FC01E199FECF06C0FFBBEEBBE09AA1
:100CA00031960DB20D9241505040B8F70895F89426
:020CB000FFCF74
:100CB2004F4C454420436C6F636B20202020202042
:100CC2002020202020202020202020202020202022
:100CD2002000102701E8030F0C110F0F14100F0D45
:100CE2000B04BF020A0346039B03E6033104950487
:060CF200E5043005710568
:00000001FF
